:020000040800F2
:10000000F008002051020008A3340008A9330008BA
:10001000A1340008211C000801380008000000007D
:10002000000000000000000000000000A7340008ED
:10003000C51C000800000000A5340008A934000811
:100040006B0200086B0200086B0200086B020008DC
:100050006B0200086B0200086B0200086B020008CC
:100060006B0200086B0200086B0200086B020008BC
:100070006B0200086B0200086B0200086B020008AC
:100080006B0200086B0200086B0200086B0200089C
:10009000251C00086B0200086B0200086B020008B8
:1000A0006B0200086B0200086B0200086B0200087C
:1000B0006B0200086B0200086B0200086B0200086C
:1000C0006B0200086B0200086B0200086B0200085C
:1000D0006B020008F53700086B0200086B0200088D
:1000E0006B0200086B0200086B0200086B0200083C
:1000F0006B0200086B0200086B0200086B0200082C
:100100006B0200086B0200086B0200086B0200081B
:100110006B0200086B0200086B0200086B0200080B
:100120006B0200086B020008311C00086B0200081B
:100130006B0200086B0200086B0200086B020008EB
:100140006B0200086B0200086B0200086B020008DB
:100150006B0200086B0200083D1C00086B020008DF
:100160006B0200086B0200086B0200086B020008BB
:100170006B0200086B0200086B0200080000000020
:100180006B0200086B02000800F002F800F051F862
:100190000AA090E8000C82448344AAF10107DA45E2
:1001A00001D100F046F8AFF2090EBAE80F0013F0E3
:1001B000010F18BFFB1A43F0010318472039000054
:1001C00040390000103A24BF78C878C1FAD85207E5
:1001D00024BF30C830C144BF04680C6070470000C1
:1001E0000023002400250026103A28BF78C1FBD840
:1001F000520728BF30C148BF0B607047662903F023
:100200000184002070471FB503F0F7FB9DE8030051
:1002100000F010FF00F0A8FB04000020002103F014
:100220005FFBE06000F0B8FC1FBD10B500F01DFDE5
:1002300010BD00F085FD1146FFF7E5FF03F01CFB44
:1002400000F08AFE03B4FFF7F0FF03BC01F084F86E
:100250000948804709480047FEE7FEE7FEE7FEE75A
:10026000FEE7FEE7FEE7FEE7FEE7FEE70448054996
:10027000054A064B70470000413500088901000817
:10028000F0020020F0080020F0040020F00400201C
:1002900053EA020C00F069802DE9F04B4FF00006A4
:1002A000002B1FBFB3FA83F503FA05F424FA05F611
:1002B0005E4012BF1643B2FA82F502FA05F4C5F1A8
:1002C00020051EBF22FA05FC44EA0C04203556EA3C
:1002D000044C4FEA144418BF641C4FF000084FF060
:1002E0000009904271EB030C39D3002919BFB1FA10
:1002F00081F701FA07F6B0FA80F700FA07F6C7F1BE
:1003000020071EBF20FA07FC46EA0C062037B6FB82
:10031000F4FCA7EB0507103F07F01F0BCBF12006FD
:100320000CFA0BFB2CFA06F644BFB3460026202F2E
:10033000A4BF5E464FF0000B5BEA060C08BF4FF00F
:10034000010B19EB0B09ABFB027C48EB0608C01B49
:1003500006FB02CC0BFB03CC71EB0C01C1E70B4697
:10036000024641464846BDE8F08B13B54FF0000009
:100370004FF00001AFF30080BDE81C407047000063
:100380000FB4044910B503AA029800F0DBFA10BCC0
:100390005DF814FBE40100202DE9F05F8946044676
:1003A0004FF0000ADFF824B1FB44C0F820A020463B
:1003B000E168884700287DD0252806D0D4E90121AE
:1003C0009047206A401C2062F1E700255F462046E6
:1003D000E16888472028064607DB312E05D2B81988
:1003E00010F8200C08B10543F1E7A80701D525F066
:1003F0000405C4F81CA00027C4F818A02A2E09D0B0
:10040000304603F026FA38B304EB8708303EC8F8CC
:10041000186019E059F8041B204604EB870291612B
:10042000E1688847012F064618D1E069002820DAE4
:1004300025F020051DE0D8F8180000EB800006EB41
:1004400040003038C8F818002046E1688847064662
:1004500003F0FFF90028EED1012F0AD02E2E08D18B
:100460002046E16888477F1C0646022F45F020059C
:10047000C4DBA069002803DA404245F00105A06111
:10048000E80701D025F01005A6B1A6F14100192812
:1004900002D8203645F400654A463146204625609C
:1004A0004D46FFF7ABFE60B1012807D0ED1D25F0EA
:1004B000070000E007E000F1080978E705F104090A
:1004C00075E730467AE7206ABDE8F09F7C36000089
:1004D0004FF0000200B5134694469646203922BFDD
:1004E000A0E80C50A0E80C50B1F12001BFF4F7AF28
:1004F000090728BFA0E80C5048BF0CC05DF804EB0A
:10050000890028BF40F8042B08BF704748BF20F877
:10051000022B11F0804F18BF00F8012B7047704775
:100520007047704770472DE9FF4F0C461E464FF04D
:10053000FF378BB0D2E90001DDF860800A908A466F
:10054000C1F30A5505B93D46002108464FF00000A9
:10055000BAF1000F00F4400005DA00EB80004FF420
:10056000400101EA50004FEA9059B9F1010F00DD56
:10057000B9460A9850EA4A000ED044F61050A5F247
:10058000FF3545432F14B8F1000F1ED07542291EC8
:100590001EDDC9F100021CE0B8F1010F4FF00000B0
:1005A00001D0302103E0F24305E02154401CB04269
:1005B000FBDB30460022002121540B99C1F8088052
:1005C000C1E900200FB0BDE8F08FBD1B6D1CDEE758
:1005D0004A4600DA694206A800F068FA06AB93E8DA
:1005E000070003AB83E8070050460A9900F050FF6C
:1005F0008DE80700A0F500501F3800900398002DEB
:100600000ADD42F21F014A460844002303A9039071
:10061000684601F0B9F909E0A0F500504A461F38D4
:10062000002303A90390684601F0C3F98DE8070091
:100630000004000C03D04FF0FF30410800E01046EA
:10064000B8F1000F03D00022009215461EE0751E7F
:1006500005D400F08DF9303262556D1EF9D5B346E0
:100660000122084302D000227F1C04E020783028B9
:1006700001D100227F1E002A099784D01DE0112D90
:1006800007DA00F075F9303262556D1C50EA01024C
:10069000F5D1084302D00098C8B10EE00021681ED1
:1006A00005E0235C625C63542254401E491C814275
:1006B000F7DBAB46A81B401E0990002004F80B0096
:1006C0000B98099AC0F80880C0E9002B7AE7112638
:1006D0004FF0000857E72DE9F04F88460446D21D39
:1006E00022F0070191B0D1E90001CDE90A0103F040
:1006F00088F802460B98C00F01D02D2007E0206833
:10070000810701D52B2002E0202101EAC000032A45
:10071000099001D0072A05DB03464146204600F038
:1007200085F90BE12078800601D5E06900E006201C
:10073000B8F1650F814606D0B8F1660F18D0B8F150
:10074000670F70D131E00020B9F1110F009001DB8B
:10075000112301E009F101030AAA01A90CA8FFF77E
:10076000E2FEDDE90C70002609F10105834647E051
:1007700001204B4600904FF000470AAA01A90CA89F
:10078000FFF7D1FEDDE90DB00C995D46002610B9EA
:1007900009F101000D18B9EB050003D4C0F1FF36D3
:1007A00009F10105A5EB09002BE0B9F1010F01DA10
:1007B0004FF001090020B9F1110F0090484601DD0A
:1007C000112300E003460AAA01A90CA8FFF7ABFE1B
:1007D000DDE90C704D4600268346207800070AD4D8
:1007E000AB4500DA5D4601A8012D04DD411911F881
:1007F000011C302907D04F4502DA17F1040F04DA43
:10080000012082460FE06D1EEEE7002F02DCED1B9B
:100810003E4403E0781CA84200DD7D1CB81B00F1BB
:10082000010A4FF000472078000703D4AA4501DBF6
:100830004FF0FF3A0021B7F1004F0DF143088DF85A
:10084000431024D002202B23002F01DA7F422D23D6
:100850000A21021EA0F1010000DC5FB197FBF1FC50
:1008600097FBF1F201FB1C7C17460CF1300C08F8E9
:1008700001CDEEE7A8F1010003702188090501D53B
:10088000452100E06521A0F1010800F8011C09984C
:100890000FA9A1EB0807FF1D00B10120411901EBD1
:1008A000EA70A1693844081A401EA0612078C00689
:1008B00002D42046AFF30080099828B1D4E9012181
:1008C0009047206A401C20622078C00622D520462E
:1008D000AFF300801EE0002E04DBB34502DD01A86B
:1008E000805D00E03020D4E901219047206A401C5F
:1008F0002062761CAAF101005FEA000A0AD100F02A
:1009000033F8C0680168405CD4E901219047206A4F
:10091000401C2062281EA5F10105DCDC07E0D4E9BB
:10092000012118F8010B9047206A401C2062381EF4
:10093000A7F10107F3DC2046AFF30080032011B0DC
:1009400041E60000074B70B50D467B4400F05BF8B4
:100950000446284600F01CF910B14FF0FF3070BD7E
:10096000204670BD132F000000487047AC020020E5
:1009700030B5B0F10A024FEA900E71F100034EEA71
:10098000817EB0EB0E0061EB91014FEA101E4EEA42
:10099000017E10EB0E0041EB11114FEA102E4EEAD2
:1009A000016E10EB0E0041EB11214FEA104E4EEAA2
:1009B000014E10EB0E0041EB1141401841F10001D6
:1009C0004FEAD00040EA41704FEAD10110EB8005B8
:1009D0004FEA810444EA907444EB01046D1944EB3E
:1009E0000404521BA3414FF0000348BF0A3200D554
:1009F00030BD401C41F1000130BD000001694A1CBE
:100A000002610878704700B58FB0CDE9013100214F
:100A1000059105497944CDE9031011466846FFF771
:100A2000BBFC0FB000BD0000E5FFFFFF2DE9F0416A
:100A30001F46044603260168072A01F4006004DB10
:100A400008B116A505E016A503E008B115A500E05C
:100A500015A521F010002060A069C01EA0610FB193
:100A6000401EA0612046AFF300804FB1D4E90121C0
:100A700038469047206A401C2062C01C206206E075
:100A8000206AFAE7D4E9012115F8010B9047761E98
:100A9000F8D22046AFF30080BDE8F0814E414E0011
:100AA0006E616E00494E4600696E66002DE9F047A2
:100AB000814616468AB0354878440DC88DE80D0049
:100AC00032487844801C03AC0DC884E80D0041F620
:100AD0009B300844372190FBF1F290FBF1F5A5F132
:100AE000800501FB12041B3C02D56442012000E09A
:100AF0000020DFF898A080460027FA44AAF1BE0A39
:100B00000EE0E0070AD03246684607EB47010123B2
:100B10000AEB810100F04DFF8DE8070064107F1C97
:100B2000002CEED1194F7F44AE3F19E0E80715D0F5
:100B300007EB04100DF1180A90E80E008AE80E0089
:100B4000C068F04201D1981908903246012306A9E5
:100B500003A800F02EFF03AB83E807006D10641CB0
:100B6000002DE3D14FF0010332466946B8F1000F82
:100B700003A802D000F008FF01E000F01AFFC9E965
:100B80000001C9F808200AB0BDE8F087FC2F00007A
:100B9000007B00F08000704710B542485421FFF7F9
:100BA00097FC41485421FFF793FC40485421FFF73C
:100BB0008FFC3F493B483C4A3F4B08603D490A6037
:100BC0003A491960531C0365481C106501200865EB
:100BD0003B48344A39A1784400F022F920B938481A
:100BE00078440A3800F0C1F937482F4A35A17844D3
:100BF00000F016F920B9344878440A3800F0B5F905
:100C000032482A4A2FA1784400F00AF920B92F4827
:100C100078440A3800F0A9F940232248DC0000217A
:100C2000224600F0D9F820B125487844543800F025
:100C30009CF91D4822464023002100F0CDF820B148
:100C400021487844543800F090F91848224610237F
:100C5000002100F0C1F8002806D01C487844BDE807
:100C60001040563800F081B910BD104870B5006DC5
:100C700020F001040B4800F049F90B4800F046F958
:100C80000A4800F043F909E0206D20F001052046F4
:100C900000F03CF9204600F078F82C46002CF3D107
:100CA00070BD000090010020E40100203802002007
:100CB00024000020280000202C00002072000000EA
:100CC000F62E000077000000E22E0000CE2E00007D
:100CD0000EB5CDE9000100F01FFB0290694601202E
:100CE000ABBE0EBD08B5694600900220ABBE08BD84
:100CF0001FB58DE8070069460520ABBE04B010BDE6
:100D00001FB58DE80F0069460620ABBEF6E708B5B3
:100D1000694600900920ABBE08BD1CB5CDE90001B5
:100D200069460A20ABBE1CBD704708B569460090F5
:100D30000C20ABBE08BD0000004870478C020020AC
:100D40007546FFF7F9FFAE4605006946534620F0A9
:100D50000700854618B020B5FFF788FABDE82040A7
:100D60004FF000064FF000074FF000084FF0000B67
:100D700021F00701AC46ACE8C009ACE8C009ACE81A
:100D8000C009ACE8C0098D46704770B50446051F20
:100D900000F034F90068002C14BF446870BD002CCA
:100DA00018BFAC423CBF20466468F8D301680A18FB
:100DB000AA4218BF456003D12A6805461144016064
:100DC00028684119A1421CBF6C6070BD61686960F0
:100DD00021680844286070BD70B5C468A50713D0A9
:100DE000650211D4B2F5807F09D0B2F5007F06D03C
:100DF000B2F5806F08D1012300F1240106E05D1EE9
:100E00006FF07F46B54201D3012070BD0161C3611F
:100E1000416024F470611143C160002070BD000086
:100E20002DE9F0410C4607461646104600F06EF8D4
:100E30002078611C61280AD0722802D077283CD122
:100E400002E00125002405E00225042402E0082434
:100E500048F2020511F8010B2B2806D0622809D0B0
:100E600011F8010C74280AD00BE045F0030544F09A
:100E70000204EFE745F0040544F00104EAE744F01A
:100E8000100438462146FFF723FF411C15D00021EE
:100E9000316171604FF40071F560F161706120079C
:100EA00004D530460222002100F022F9306D40F0D6
:100EB000010030653046BDE8F0810020FBE72DE9F8
:100EC000F0410D460646104C206DC10704D0410884
:100ED00004D020F00104F7E722460EE0542000F091
:100EE000D8F807000ED0206D47F0010108435421C7
:100EF00020653846FFF7ECFA3A4629463046BDE809
:100F0000F0418DE70020D6E7900100202DE9F04761
:100F100004464FF000094FF0FF37C568D4E9048656
:100F2000A80707D0204600F093F93046FFF7DAFE15
:100F3000002802DA3846BDE8F087280502D5404689
:100F4000FFF723FF4C212046FFF7C2FA206D20F067
:100F5000010020654846EEE710B50446AFF3008077
:100F60002046BDE81040FFF76DB910B500F0BAF9A2
:100F7000BDE8104000F0B0B94FF0013C50F8042B30
:100F800051F8043B9A4221D1A2EB0C03934313EA9C
:100F9000CC1317D150F8042B51F8043B9A4215D1C9
:100FA000A2EB0C03934313EACC130BD150F8042BA0
:100FB00051F8043B9A4209D1A2EB0C03934313EA84
:100FC000CC13DBD04FF00000704700BFD01A01BA3D
:100FD000B1FA81F101F0180122FA01F0CB40C1F120
:100FE0002001DBB2C0B2C01A2CFA01F3D11A91432E
:100FF00011EAC311E6D170477047000000487047FE
:1010000094020020704770477047704738B5044617
:101010000A4600206946AFF30080002808BF38BDAB
:1010200002460099204600F0A4F9012038BD0120B5
:1010300000F0F3B9F8B5AFF30080054600200C4688
:10104000102000BF0646A819A0420DD932466946B5
:101050000020AFF30080070008BF00F0DEF9009821
:10106000A04218BF0546C419FFF7C8FF0560074630
:10107000F01D20F007004619284600F073F9B4422D
:1010800008BFF8BDA21B31463868BDE8F84000F043
:1010900070B970B50646FFF7B1FF056806F10B00A1
:1010A00020F00704B4429CBF002070BD2B466A6844
:1010B000BAB11068A04210D304F1080188423CBFC5
:1010C0005068586007D35168101941601168091BB6
:1010D000016058601460101D70BD13465268002AEC
:1010E000E7D121462846FFF791FF0028DED170BDE9
:1010F0002DE9F041044616460D464769007B8007FE
:101100002ED03846FFF703FE50BB3EB3012E02D06F
:10111000022E25D104E0204600F045F905441DE0EB
:101120003846FFF702FEE168002841F01001E16057
:1011300005DA204600F058F80120BDE8F081C90327
:101140000BD56268E16A914200D81146A269114448
:101150002269891A814200DD08460544002D01DA22
:101160000220EAE7E16A6068E268814206D2910300
:10117000E06203D522F4003141F01002A669002795
:10118000AE4213DCE16A814201D90B4600E003461E
:1011900003EB060C2369ACEB030CAC4506DD814286
:1011A00001D98C4600E084469C4505D1A7602760A4
:1011B00042F02000A5620DE0AD1BE669AE1B814246
:1011C000A66000D90846C01A281A20605819606025
:1011D00022F0200003490840E060002084F84870B5
:1011E000ABE70000BFCFD7FFC16821F4001141F089
:1011F0008001C16000218160016070472DE9F047E6
:10120000814614460E464FF0FF383248D56857697C
:10121000054209D03846A169FFF77FFD002811DBA0
:101220002C48C0430540E5602B46324649463846C7
:10123000FFF75EFDA16920F00042B21A11440028B8
:10124000A16103D02046FFF7CFFF4046BDE8F087FD
:1012500070B504460569C06A6168884200D80846CE
:10126000E16821F42011E160C90312D5A84208D039
:101270002246411B2846FFF7C1FF10B14FF0FF3057
:1012800070BD0020E562C4E90150E06820F48030C0
:10129000E060002070BD10B50446C06820F020005A
:1012A000E060A16AA06988420DD02046FFF7D0FF18
:1012B000E06820F4405040F01000E060A06AA061B7
:1012C0002069E062606044F24001E0688843E060C9
:1012D00010BD000010000200002801D000F03CB852
:1012E0007047000010B5014602A000F07DF8012013
:1012F00010BD000053494752545245443A205265AC
:101300006469726563743A2063616E2774206F703C
:10131000656E3A200000000010B5431C02E010F892
:10132000011B71B18107FAD14FF0013202C88C1A4A
:101330008C4314EAC211F9D0C01A0A0603D0C01EA9
:1013400010BDC01A10BD0A0401D0801E10BD0902D4
:10135000FCD0401E10BD000001491820ABBEFEE7C6
:101360002600020000210160C0E901107047102032
:101370007047034640688C46002818BF88423CBF2F
:1013800003464068F8D318681844884207D00CF127
:10139000030020F00700001D411A521A0146081DE3
:1013A0000A60FFF7F2BC10B50146C268900703D08F
:1013B000900607D5886A0AE000F03EF80121016036
:1013C000881E10BD8B69486818440B69C01A91F8D3
:1013D00048301BB191F84910401A10BD1103FCD5DB
:1013E0000028FADD401E10BD70B505460C460A20E7
:1013F00000E06D1C00F018F835B128780028F8D10D
:1014000002E0641C00F010F814B120780028F8D134
:10141000BDE870400A2000F007B810B500F010F8E1
:10142000BDE81040FFF758BF08B569468DF80000C9
:101430000320ABBE08BD0000004870478C020020AE
:1014400010B5012805D0002103A0FFF7CDFF012032
:1014500010BD09A1F8E7000053494752544D454DCE
:101460003A204F7574206F662068656170206D6545
:101470006D6F7279000000003A2048656170206D40
:10148000656D6F727920636F727275707465640038
:101490005FEA400C08BF91F0000F4FEA8C234FEA3F
:1014A000C12243EA51514FEA1C5018BF00F5F040E9
:1014B0004FEA300018BF41F000415FEA6C5C00F079
:1014C0002980BCF1FF3F08BF40F080407047130CFB
:1014D00006BF12044FF0100C4FF0000C130E04BFA7
:1014E00012020CF1080C130F04BF12010CF1040CD2
:1014F000930F04BF92000CF1020CD30F04BF5200F3
:101500000CF1010C11464FF00002A0F11F00A0EBFE
:101510000C00704711F0004F08BF704731F00041D8
:101520003FF4D5AF0B0C06BF09044FF0100C4FF081
:10153000000C0B0E04BF09020CF1080C0B0F04BFCA
:1015400009010CF1040C8B0F04BF89000CF1020C93
:10155000CB0F04BF49000CF1010CCCF12003A0EB30
:101560000C0022FA03F302FA0CF241EA030100F143
:101570000100704720F07F4C80EA030023F07F4792
:10158000ACEB070303F57C5300F0004003F1FF03CD
:101590002DE980494FEA154B09B44FEA144325EA77
:1015A0000B4E24EA03480FF2042606EB13274908E2
:1015B0003E785FEA320203FB0667C7F5000707FBC8
:1015C00006F64FEA54374FEAD64606F1020607FB05
:1015D000066CCCF1005C4FEA1C472CEA074C07FB79
:1015E00006F40CFB06F504EB15464FEA961634BFDD
:1015F00000204FF000404FEAD13706FB07FC4FEACE
:101600001C4C0CFB0BF7D21B03FB0CF761EB070127
:101610000CFB0EF7B0EB074072EB17420CFB08F720
:1016200034BFA2EB0742B2EB074261EB17414FEA2E
:101630000C444FEA910706FB07FC4FEA1C4C0CFBDD
:101640000BF7B0EBC74072EB573203FB0CF734BF1C
:10165000A2EBC742B2EBC74261EB57310CFB0EF76E
:10166000B0EBC70072EB57720CFB08F734BFA2EB6C
:10167000C702B2EBC70261EB5771039F4FEA81616A
:1016800041EA921104EBCC044FEAD1374FEA82626F
:1016900006FB07FC42EA90124FEA80604FEA1C4CBE
:1016A0000CFB0BF7D21B03FB0CF761EB07010CFBE8
:1016B0000EF7B0EB074072EB17420CFB08F734BF94
:1016C000A2EB0742B2EB074261EB17414FEA8C55A0
:1016D0004FEA910704EB9C2406FB07FC4FEA1C4CE5
:1016E0000CFB0BF7B0EBC74072EB573203FB0CF768
:1016F00034BFA2EBC742B2EBC74261EB57310CFBE0
:101700000EF7B0EBC70072EB57720CFB08F734BF53
:10171000A2EBC702B2EBC70261EB577115EB4C2588
:101720004FEA816141EA92114FEA82624FEAD13772
:1017300042EA901206FB07FC44F100044FEA806085
:101740004FEA1C4C0CFB0BF7D21B03FB0CF761EBB5
:1017500007010CFB0EF7B0EB074072EB17420CFBD6
:1017600008F734BFA2EB0742B2EB074261EB174127
:1017700015EB1C154FEA813141EA92414FEA823262
:1017800042EA90424FEA80304FEA0C7644F100047E
:1017900048EA03434EEA0B484FF0000EB2EB080C48
:1017A00071EB030724BF624639464EEB0E0E4FF035
:1017B000000B0018524149414BEB0B0BB2EB080CEC
:1017C00071EB03077BF1000B24BF624639464EEBF9
:1017D0000E0E4FF0000B0018524149414BEB0B0B22
:1017E000B2EB080C71EB03077BF1000B24BF6246E0
:1017F00039464EEB0E0E51EA020718BF46F00106BD
:1018000016EB0E7655F1000254F1000103D5BDE848
:101810008901BDE80088BDE88901BDE80048B61926
:10182000524141EB0101A3F10103704780807F7EAB
:101830007D7C7B7A79787776767574737271717046
:101840006F6E6E6D6C6C6B6A6A69686867666665F8
:101850006464636362616160605F5F5E5E5D5D5C86
:101860005C5B5B5A5A5959585857575656555555F7
:101870005454535352525251515050504F4F4F4E57
:101880004E4D4D4D4C4C4C4B4B4B4A4A4A494949A5
:1018900048484847474747464646454545444444E7
:1018A000444343434342424242414141002B9C4610
:1018B00030D477002BD01CB54FEA370703B44FF074
:1018C00010004FF01001BAF1000F06D0BCF1000F6C
:1018D000DCBF40F0080040F008014FF000000FBCF2
:1018E000BDE810400BF1010BBBF1010F08BF5FEA2F
:1018F000170722BF12F1010211F101014FF000415F
:1019000043F1000300F0004043EA00007047F9D3C0
:101910005708D0E746EA064613F1400F4FEA16464D
:101920001FDD13F1200FDFBF16430A4600212033CD
:101930005B42BED0C3F1200746EA064602FA07F72B
:101940004FEA164646EA0706C3F1200722FA03F2D9
:1019500001FA07F721FA03F14FF0000342EA070208
:10196000A7E746EA020646EA06464FEA164646EA70
:101970000106BCBF46EA0646360C4FF000034FF0A6
:1019800000024FF0000194E72DE9804C9A469346FF
:1019900070B491E8380007C831EA400C48BF34EA17
:1019A000430C03D5FFF7E6FDFFF780FFF0BCBDE871
:1019B000008C2DE9804C9A46934670B491E838002B
:1019C00007C810F0804F08BF13F0804F03D100F01C
:1019D00005F8FFF76BFFF0BCBDE8008C20F07F47F7
:1019E00080EA030023F07F4C07EB0C03A3F57C5344
:1019F00000F00040A3F1FE0392F0000F00F0B3806E
:101A000095F0000F00F077802DE901494FEA114071
:101A10004FEA144621EA004800FB06FC24EA064788
:101A200008FB06F607FB08F800FB07F718EB06486B
:101A30004CEB164C4FEA124B18EB07484FEA154691
:101A40004CEB174022EA0B4E0BFB06FC25EA06473F
:101A50000EFB06F607FB0EFE0BFB07F71EEB064E12
:101A60004CEB164C4FF000061EEB074E4CEB174BA1
:101A700018EB0B0840F1000018EB0E0B58EB0008B8
:101A800040F100008F1A4FF000013CBFC943661BB4
:101A900014BFB5EB040C00213CBFC943F61B4FEA51
:101AA00017444EEA8E0E27EA04454FEA1C4704FB12
:101AB00007622CEA074C05FB07F70CFB05F604FB55
:101AC0000CFC16EB074642EB174216EB0C4642EBBA
:101AD0001C421BEB060658EB0202414146EA9E06F9
:101AE00001D5BDE80189B619524141EB0101A3F1CD
:101AF0000103BDE801894FEA14454FEA114724EA82
:101B0000054621EA074C05FB07F406FB07F70CFB2B
:101B100006F105FB0CFC11EB074144EB17444FEABF
:101B2000124711EB0C4144EB1C4422EA074C05FB25
:101B300007F206FB07F70CFB06F605FB0CFC16EBA1
:101B4000074642EB174216EB0C4642EB1C456A185F
:101B500054F1000148BF7047B619524141EB0101F1
:101B6000A3F10103704795F0000F37D04FEA1142FF
:101B70004FEA144721EA024624EA074C02FB07F128
:101B800006FB07F70CFB06F402FB0CFC14EB074406
:101B900041EB17414FEA154714EB0C4441EB1C4154
:101BA00025EA074C02FB07F506FB07F70CFB06F6D8
:101BB00002FB0CFC16EB074645EB174516EB0C46F3
:101BC00045EB1C42121951F1000148BF7047B6198C
:101BD000524141EB0101A3F1010370474FEA144563
:101BE0004FEA114724EA054621EA074C05FB07F1B5
:101BF00006FB07F70CFB06F24FF0000605FB0CFC9A
:101C000012EB074241EB174112EB0C4251EB1C4126
:101C100048BF7047921841EB0101A3F101037047DF
:101C2000FEE70000014800F05EB9000064000020FB
:101C3000014800F0FBBB0000D0000020014800F08C
:101C4000F5BB00003001002001681823CAB2103A29
:101C5000B2FBF3F2054B6FF30901032A9B5CC365EA
:101C600000D9091D8165084670470000083A000840
:101C700010B5014600208B698A6A4FF0C07453B1D9
:101C8000B3F5005F15D072B1012A0CD0022A0AD038
:101C9000032A09D104E01AB1012A06D0022A03D18D
:101CA000C96AC90100D5012010BDC96AA142FAD094
:101CB00010BD002AF7D0012AF2D0022AF3D0032A5D
:101CC000F3D010BD704772B6FEE790F82020012ACD
:101CD00007D0022A05D0416A41F4802141620120E7
:101CE0007047006842690A43426100207047000063
:101CF00010B590F82020012A07D0022A05D0416AA9
:101D000041F480214162012010BD3B48D0F80022FF
:101D100042F00102C0F80022D0F8002222F47C52E6
:101D2000C0F80022D0F800224B6A42EA0322C0F831
:101D300000220A7D02F01F0301229A40D0F81C32D3
:101D40009343C0F81C32CB69B3B9D0F80C3293433B
:101D5000C0F80C328C894B6864F31F434C6900EB6C
:101D6000C404C4F840320C890B6864F31F434C6907
:101D700000EBC404C4F84432CB69012B16D1D0F86F
:101D80000C321343C0F80C320C884B6864F31F43C9
:101D90004C6900EBC404C4F840320C89CB6864F38E
:101DA0001F434C6900EBC404C4F844328B69002B18
:101DB000D0F804320ED01343C0F804320B69002B64
:101DC000D0F8143208D01343C0F81432096A01293C
:101DD00004D008E09343EFE79343F5E7D0F81C12F3
:101DE0001143C0F81C12D0F8001221F00101C0F814
:101DF0000012002010BD000000640040704730B5A4
:101E000090F82040012C05D0022C03D0416A41F407
:101E100080215DE00468002955D02469A40754D0CE
:101E20004FF4D874056804EB01142D5915F004051E
:101E3000956005682D594ED0ED08556005682C5900
:101E400004F00204D4604FF4DA74056804EB011462
:101E50002D5905F00F05156105682D59C5F30725A6
:101E6000956105682C59240C54614FF4DC720468A8
:101E700002EB0112A4581C700468A458240A5C7078
:101E80000468A458240C9C700468A258120EDA70DE
:101E90004FF4DE72046802EB0112A4581C7104684E
:101EA000A458240A5C710468A458240C9C7104682A
:101EB000A258120EDA71006881B1016941F0200167
:101EC0000161002030BDE468A8E7416A41F40011D7
:101ED0004162012030BD6D0D1560AFE7C16841F072
:101EE0002001C160EDE72DE9F05F054600680024A0
:101EF0004669D0F804908768D0F80CB0D0F810A0EC
:101F0000D0F81880F10748D0F90714D0012181607A
:101F1000B80703D5284600F028FA0CE0780702D568
:101F20004FF4006407E0380702D54FF4805402E014
:101F3000284600F019FAF80516D529684FF4807084
:101F40008860B80503D5284600F011FA0CE0780542
:101F500002D544F4005407E0380502D544F4804427
:101F600002E0284600F002FAF80316D529684FF47B
:101F700080308860B80303D5284600F0FAF90CE0F9
:101F8000780302D544F4004407E0380302D544F452
:101F9000803402E0284600F0EBF9300707D55FEA0D
:101FA000CB6004D52968102044F40074C860700721
:101FB0004FF0080707D55FEA0B7004D52868C760A3
:101FC000284600F057F9B00706D52868C068800792
:101FD00002D0284600F050F9700607D55FEACA60C3
:101FE00004D52968102044F480640861B00607D540
:101FF0005FEA0A7004D528680761284600F084F972
:10200000F00606D528680069800702D0284600F04F
:102010007CF9B00308D55FEAC96005D529681020AE
:102020004860284600F072F9F00307D55FEA0970AE
:1020300004D528684760284600F09CF9300446D54E
:102040005FEA497040D5F00504D55FEAC87001D059
:1020500044F00104B00504D55FEA887001D544F06E
:102060000204700504D55FEA487001D544F0040409
:10207000300529D518F0700F26D008F070004028E0
:1020800015D006DC102809D020280AD0302816D117
:102090000AE050280ED0602811D10EE044F0080468
:1020A0000DE044F010040AE044F0200407E044F09E
:1020B000400404E044F0800401E044F480742868A3
:1020C000816921F070018161296804204860002C39
:1020D00005D0686A204368622846FFF78FFEBDE896
:1020E000F09F70B5040003D094F8200010B104E014
:1020F000012070BD204600F081F82068016841F0A1
:102100000101016000F0C4FB0546052604E000F073
:10211000BFFB401B0A2811D820684068C007F6D0D2
:102120002068016821F00201016000F0B1FB054662
:102130000BE000F0ADFB401B0A2806D9606A40F4B2
:102140000030606284F82060D2E720684068800731
:10215000EFD4207E0128206801683DD021F0800165
:102160000160607E01282068016838D021F04001BC
:102170000160A07E01282068016833D021F0200191
:102180000160E07E0128206801682ED041F0100136
:102190000160207F01282068016829D021F0080112
:1021A0000160607F01282068016824D021F00401CB
:1021B0000160D4E902010843D4E904121143084341
:1021C0006168491E08432168C861002060620120DF
:1021D00084F82000002070BD41F08001C0E741F08C
:1021E0004001C5E741F02001CAE721F01001CFE727
:1021F00041F00801D4E741F00401D9E710B586B0F9
:10220000044614216846FEF763F91749206888429E
:1022100027D116480021026842F00072026000686F
:1022200000F00070059011481038026842F0080272
:1022300002600068022200F0080005900320CDE94A
:102240000210CDE90002092004906946084800F018
:1022500027FA00221146142000F088FB142000F019
:1022600077FB06B010BD000000640040403802401B
:10227000000C02407047000010B500681949884200
:102280002FD1194B194A00211948FFF7B8FD1748FB
:102290000088800525D514489FED161A01784278EC
:1022A0000902807841EA024141EA0060C11700EB6F
:1022B0001160001200EE100A0B48F8EEC00A0C384C
:1022C00080EE810A80ED000A10EE100A01F024FB76
:1022D00041EC100BBDE8104053EC102B06A0FEF7AC
:1022E0004FB810BD006400400C00002048000020E2
:1022F0006400002000007A4443414EA3BA202530F8
:102300002E32660D0A0000007047704770470000CB
:1023100070B5044690F82000012804D0606A40F4AB
:102320000020606218E0022084F820002068016824
:1023300021F00101016000F0ABFA05460EE000BF9C
:1023400000F0A6FA401B0A2808D9606A40F4003061
:102350006062052084F82000012070BD206840687C
:10236000C007EDD1606270BD70477047704770471D
:102370007047704770472DE9F0410446876D00F0C3
:1023800087FA064694F835000025022806D08020FA
:10239000606584F834500120BDE8F0812068016850
:1023A00021F0160101602068416921F0800141613E
:1023B000206C08B9A06C20B12068016821F00801E8
:1023C00001602068016821F0010101600CE000F06B
:1023D0005FFA801B052807D920206065032084F858
:1023E000350084F83450D7E720680068C007EED184
:1023F00094F85C103F208840B860012084F83500D4
:1024000084F834500020C7E790F83510022903D033
:102410008021416501207047052180F83510006852
:10242000016821F001010160002070472DE9F843A7
:1024300004464FF00009CDF8009063484FF4165160
:10244000A56D0068B0FBF1F72E6894F85C100820C9
:1024500000FA01F131420FD021680A6852070BD50A
:102460000A6822F004020A6094F85C108840A860B0
:10247000606D40F00100606594F85C104FF0010859
:1024800008FA01F0304208D021684969090604D5EC
:10249000A860606D40F00200606594F85C10042054
:1024A0008840304208D021680968890704D5A860AF
:1024B000606D40F00400606594F85C101020884066
:1024C000304218D021680968090714D5A86020682F
:1024D0000168490304D50068000308D5A16C07E032
:1024E0000168C90503D4016821F008010160216C6D
:1024F00009B12046884794F85C102020884030427B
:1025000031D021680968C9062DD5A86094F8350036
:1025100005282068016806D0490347D500680003F4
:102520001DD4616C1CE021F0160101602068416936
:1025300021F080014161206C08B9A06C20B12068B5
:10254000016821F00801016094F85C103F20884088
:10255000A86084F8358084F83490216D1FE0E16B29
:1025600009B120468847606D00282BD0606DC007F8
:1025700014D0052084F835002068016821F001019D
:1025800001600098401C0090B84203D820680068A1
:10259000C007F6D184F8358084F83490E16C0029C6
:1025A00010D001B02046BDE8F04308470168C905D6
:1025B000D5D4016821F01001016084F8358084F8D9
:1025C0003490CCE7BDE8F883200000202DE9F041ED
:1025D000044600F05DF906465CB1022084F835003F
:1025E000002584F834502068016821F00101016061
:1025F0000DE00120BDE8F08100F04AF9801B0528BC
:1026000005D920206065032084F83500F2E72068B2
:102610000068C007F0D12268116820480140D4E961
:1026200001031843D4E9033633431843636918435D
:10263000A3691843E3691843236A18430843616A8E
:10264000042903D1D4E90B1319430843106020680F
:102650004069666A20F0070130460E4301270428CE
:102660000CD1A06A0643E06A40B12046FFF700FBA8
:1026700020B14020606584F83570BAE72068466173
:102680002046FFF7E1FA94F85C203F2191408160F9
:10269000656584F835700020ACE700003F8010F0DD
:1026A0002DE9F84FDFF8BCA10022012503264FF0E9
:1026B0000F090AF1040BAAF1040E00BF0B6805FA1A
:1026C00002F42340A34270D10F7907F00307012FD2
:1026D00001D0022F16D187684FEA420806FA08FC9B
:1026E00027EA0C07D1F80CC00CFA08FC4CEA070CDE
:1026F000C0F808C04768A7430C79C4F3001494409D
:102700003C4344600C79E443A4070AD0C4684FEA10
:10271000420C06FA0CF7BC438F6807FA0CF7274304
:10272000C7600C7904F00304022C12D1D40800EB2A
:10273000840CDCF820405707FF0E09FA07F824EA5A
:102740000804D1F8108008FA07F848EA0408CCF821
:10275000208004684FEA420C06FA0CF7BC430F795C
:1027600007F0030707FA0CF7274307604C6814F4D7
:10277000403F70D03C4C276847F48047276024686E
:1027800022F0030704F480440094384C07EB040C57
:10279000DCF8084897074FEA177809FA08F7BC43AE
:1027A000334FB84202D1002724E054E0314FB84201
:1027B00001D101271EE0304FB84201D1022719E0B4
:1027C0002E4FB84201D1032714E02D4FB84201D15A
:1027D00004270FE02B4FB84201D105270AE02A4F0A
:1027E000B84201D1062705E0284FB84201D107279A
:1027F00000E0082707FA08F72743CCF80878DAF84A
:1028000000405746D1F804C09C435FEACC2C00D569
:102810001C433C60DBF800405F46D1F804C09C4399
:102820005FEA8C2C00D51C433C60DEF80040774604
:10283000D1F804C09C435FEA8C3C00D51C433C604B
:10284000084F083F3C68D1F804C09C435FEACC3C89
:1028500000D51C433C60521C102AFFF42FAFBDE88A
:10286000F88F0000083C014044380240003001402D
:10287000000002400004024000080240000C024038
:10288000001002400014024000180240001C0240E8
:1028900001488068704700001400002002488168E9
:1028A0000278114481607047140000200B4810B575
:1028B000016841F400710160016841F480610160C8
:1028C000016841F480710160032000F06FF80F206F
:1028D00000F006F800F024F8002010BD003C024093
:1028E00070B50D4D04464FF47A712878B1FBF0F0C5
:1028F0000A490968B1FBF0F000F00AFB48B9102C56
:1029000007D200222146501E00F030F800206C60F3
:1029100070BD012070BD00001400002020000020C8
:102920000A4808B5016841F480410160006800F47C
:10293000804000900548001F016841F0805101600F
:10294000006800F08050009008BD0000443802404C
:10295000002809DB00F01F0201219140400980009E
:1029600000F1E020C0F8001170470000F0B40E4BF9
:102970001B680C46C3F30223C3F10705042D00D9DD
:102980000425191D072901D2002300E0DB1E0126C2
:1029900006FA05F1491E214099409E40761E1640D8
:1029A0003143F0BC00F045BF0CED00E0064900F0FB
:1029B000070208684FF6FF03184040EA0220034A66
:1029C00010430860704700000CED00E00000FA05BD
:1029D0002DE9F0470E46050065D0DFF81481D8F8E0
:1029E0000000F7B200F00700B04207D288F800708C
:1029F000D8F8000000F00700B04254D128683D4CE0
:102A0000810712D5400703D5206840F4E0502060CC
:102A10002878000703D5206840F4604020602068D3
:102A2000A96820F0F000084320602878C0072DD066
:102A3000304968680839012812D0022813D00328C9
:102A400011D00968890700292DDA216821F00301D6
:102A500001432160FFF71CFF814641F2883A0EE0F6
:102A600009688903EFE709688901ECE7FFF710FFC0
:102A7000A0EB0901514502D90320BDE8F087206889
:102A8000696800F00C00B0EB810FEFD1D8F80010AE
:102A9000404601F00701B14207D90770006800F015
:102AA0000700B04201D00120E7E72878400705D5AC
:102AB0002068E96820F4E050084320602878000787
:102AC00006D52068296920F4604040EAC1002060F2
:102AD00000F038F82168084AC1F30311515CC8407E
:102AE0000649086006480068FFF7FAFE0020C4E7C0
:102AF000003C024008380240103A00082000002044
:102B0000180000200448054900680968044AC1F318
:102B10008221515CC84070472000002008380240E4
:102B2000203A00080448054900680968044AC1F3CE
:102B30004231515CC84070472000002008380240F4
:102B4000203A0008154810B5006810F00C0214482F
:102B500013D04110042A0FD0082A0ED10F4C241F85
:102B60002268236802F03F025B0207D52068C0F3A9
:102B70008810A0FB010106E0084610BD2168C1F3E2
:102B80008811A1FB00010023FDF782FB2168C1F33E
:102B90000141491C4900B0FBF1F010BD083802406A
:102BA0000024F4002DE9F84F04006ED02078DFF8FF
:102BB0004C93C007A9F104054AD009F1040001684B
:102BC000C1F38101012908D00068C0F38100022807
:102BD0000AD1D9F80000400206D52868800337D50D
:102BE00060680028E1D033E06068B0F5803F10D025
:102BF000B0F5A02F286810D020F480302860286815
:102C000020F4802028606068A8B1FFF741FE0646E6
:102C10000DE0286840F48030F4E740F4802028601C
:102C2000F7E700BFFFF734FE801B642873D82868DD
:102C30008003F7D50CE0FFF72BFE064605E000BF4A
:102C4000FFF726FE801B6428F0D828688003F7D49D
:102C50002078DFF8AC8280074FF0000A3ED5A74805
:102C6000001D016811F00C0F08D00068C0F381004E
:102C700002280BD1D9F80000400207D42868800749
:102C800016D5E068012800D112E033E1E068B8B160
:102C90000120C8F80000FFF7FBFD064605E000BF75
:102CA000FFF7F6FD801B0228C0D828688007F7D5FB
:102CB0002868216920F0F80040EAC10028600DE092
:102CC000C8F800A0FFF7E4FD064604E0FFF7E0FDCA
:102CD000801B02281FD828688007F7D420780007B7
:102CE00022D5864F87486169703771B10121016033
:102CF000FFF7CEFD064604E0FFF7CAFD801B022861
:102D000009D838688007F7D50EE0C0F800A0FFF7B3
:102D1000BFFD064605E082E0FFF7BAFD801B0228F2
:102D20007DD838688007F7D42078400768D5DFF869
:102D3000CCB100270BF13C0BDBF80000C0000BD43A
:102D4000DBF8001041F08051CBF80010DBF80000F8
:102D5000012700F0805000906B4E3068C00510D401
:102D6000306840F480703060FFF792FD009005E01D
:102D7000FFF78EFD0099401A022850D83068C00530
:102D8000F6D55E4EA0686C3601280FD00528306855
:102D900010D020F001003060306820F00400306076
:102DA000A068B8B1FFF774FD00900FE0306840F004
:102DB0000100F4E740F004003060F7E7FFF768FD3A
:102DC0000099411A41F28830814266D83068800704
:102DD000F4D50EE0FFF75CFD009007E0FFF758FD2B
:102DE0000099411A41F28830814256D830688007F4
:102DF000F4D42FB1DBF8001021F08051CBF8001093
:102E0000A069C8B33D49091D0968C1F381010229C0
:102E10004AD00228504607D0C8F8600000E03CE0E5
:102E2000FFF736FD04463BE04746C8F86000FFF771
:102E30002FFD064605E000BFFFF72AFD801B022894
:102E40002BD828688001F7D4D4E907010843A16A88
:102E50002E4A490802EB0141626A41EA82110843A5
:102E600094F82C1040EA0161C9F80010012038667E
:102E7000FFF70EFD044606E03EE000BFFFF708FD49
:102E8000001B022809D828688001F7D534E000BF6C
:102E9000FFF7FEFC001B022802D90320BDE8F88FD3
:102EA00028688001F4D427E00128F7D0D9F8000081
:102EB000E26900F4800191421CD1226A00F03F01D6
:102EC000914217D147F6C071626A0140B1EB821F8F
:102ED00010D1A26A4FF0FF3300F4403103EB5202ED
:102EE000B1EB024F06D194F82C1000F07060B0EBFB
:102EF000016F01D00120D1E70020CFE70438024064
:102F000000004742800E4742007000400000FFFF73
:102F100010B5401EB0F1807F01D3012010BD4FF0ED
:102F2000E02460610F21601700F083FC0020A061A5
:102F300007202061002010BD70477047F8B5016878
:102F400004460868CA684B6910F00F0F4FF000057F
:102F500059D003F0010602F49077374365D0C107DA
:102F600005D0D10503D5216C41F001012164410751
:102F700005D5D90703D0216C41F0020121648107F6
:102F800005D5D90703D0216C41F004012164010764
:102F900007D502F02001314303D0216C41F0080134
:102FA0002164216C00293AD0800604D5900602D510
:102FB000204600F0FCFA20684069216CC0F38010C4
:102FC000090700D460B3204600F0CAFA20684069BF
:102FD000400621D52068143050E8001F21F0400140
:102FE00040E80012002AF5D1A06BA8B16C49016538
:102FF000A06BFFF709FA002811D0A06B016D01B09A
:10300000BDE8F040084783060FD593060DD520464E
:10301000BDE8F84000F0CBBA2046FFF78EFFF8BDC0
:103020002046FFF78AFF2564F8BD266B2023012E7A
:1030300079D1C60677D5D60675D508684868009058
:103040004869400640D5A16B086840680004000C40
:10305000EAD0A28D8242E7D9E085C869B0F5807FC9
:103060002DD020680C3050E8001F21F4807140E81A
:103070000012002AF5D12068143050E8001F21F01A
:10308000010140E80012002AF5D12068143050E810
:10309000001F21F0400140E80012002AF5D184F819
:1030A0003E30256320680C3050E8001F21F01001ED
:1030B00040E80012002AF5D1A06BFFF75CF9A08D63
:1030C000E18D401A81B229E0A08DE18D401A81B2D4
:1030D000E08D0028A8D00029A6D020680C3050E848
:1030E000002F22F4907240E80026002EF5D12068CF
:1030F000143050E8002F22F0010240E80026002E94
:10310000F5D184F83E30256320680C3050E8002F5C
:1031100022F0100240E80023002BF5D12046FFF7F3
:103120000BFFF8BDFFE705062BD5150629D594F84A
:103130003D002128F5D1A068B0F5805F01D120695C
:10314000B0B1206A411C2162216800784860E08C9F
:10315000401E0004000CE084E3D12068C16821F027
:103160008001C1602068C16841F04001C160D8E7BA
:10317000206A0088C0F308004860206A801C206232
:10318000E5E74006CDD55006CBD5CA68204622F0EB
:103190004002CA6084F83D3000F005F9C1E7000044
:1031A0005135000870B5040004D094F83D000025A6
:1031B00010B106E0012070BD84F83C50204600F0BC
:1031C00023F8242084F83D002068C16821F40051D0
:1031D000C160204600F04CFA2068016921F490415A
:1031E00001612068416921F02A0141612068C168BC
:1031F00041F40051C1602564202084F83D0084F82A
:103200003E00002070BD00002DE9F04186B006466A
:1032100014216846FDF75CF930493068884259D17D
:103220002F480024016841F010010160006800F09F
:10323000100005902A481438016841F0010101602E
:103240000068694600F0010005904FF4C0600090EE
:103250000220CDE9010403200390072004902148B7
:10326000FFF71EFA214D20484FF000672860C5E99E
:1032700001744FF48068C5E903486C61AC61EC618E
:103280002C6228466C62FFF7A1F908B1FEF71BFD1E
:10329000B563AE63154D144860357830E5E8020734
:1032A0004020A5E81101114845F814496030AC618F
:1032B000EC612C626C62FFF789F908B1FEF703FD3F
:1032C0007563002211462520AE63FFF74FFB2520D2
:1032D000FFF73EFB06B0BDE8F081000000100140A2
:1032E000443802400000024040640240D000002008
:1032F000704700002DE9F843044690F83D001F4652
:1033000016460D4620284CD1C5B1BEB194F83C00FC
:10331000012846D0012084F83C004FF00008C4F892
:103320004080212084F83D00FFF7B2FAA684814650
:10333000E684A068B0F5805F03D004E00120BDE81A
:10334000F883206928B12E465FF0000584F83C80A0
:103350000EE00026FAE78021204600F00FFAA0B91F
:10336000AEB116F8010B21684860E08C401EE08485
:10337000E08C4B464FF0000200970028EBD14FF055
:103380004001204600F0FAF930B10320D7E735F8C4
:10339000020BC0F30800E6E7202084F83D0000207F
:1033A000CDE70220CBE77047FEE700000F4810B5DD
:1033B0000D4901600621416000214FF440328160D7
:1033C000C0E903124FF480124261017641768176A2
:1033D000C17601774177FEF784FE002803D0BDE86F
:1033E0001040FEF770BC10BD006400406400002077
:1033F0000D4808B5016841F48001016000680022B1
:1034000000F48000009011463A20FFF7AFFA3A200E
:10341000FFF79EFA002211464620FFF7A7FABDE803
:1034200008404620FFF794BA303802400D4808B5EE
:10343000016841F080010160016801F080010091A4
:10344000016841F001010160016801F00101009192
:10345000016841F008010160006800F00800009078
:1034600008BD0000303802400C4810B50A49016020
:103470004FF461214160002181600C22C160C0E9EC
:1034800004128161C161FFF78DFE002803D0BDE801
:103490001040FEF718BC10BD001001408C00002049
:1034A000FEE7FEE770477047FFF7F8B930B593B015
:1034B00030216846FDF70CF814210CA8FDF708F838
:1034C0001D480025016841F080510160006800F04E
:1034D000805011901948016841F4804101600068F2
:1034E000022400F48040119001200090000401901B
:1034F0008001CDE9064008AA0420A82182E8130033
:103500000B906846FFF74EFB08B172B6FEE70CA9B8
:103510000F2081E831004FF4A0500F904FF48050FD
:10352000109005210CA8FFF753FA002801D072B6BD
:10353000FEE713B030BD000040380240007000408C
:103540000248016841F470010160704788ED00E0B5
:1035500010B5806B0021C185C184FFF7EEFC10BD62
:1035600001680C3151E8002F22F4907241E80023E9
:10357000002BF5D10168143151E8002F22F001022F
:1035800041E80023002BF5D1016B012909D1016825
:103590000C3151E8002F22F0100241E80023002BEB
:1035A000F5D1202180F83E1000210163704708B555
:1035B00090F83E10222901D0022008BD82684FF405
:1035C00080539A4201D1016921B1816A9A421BD08C
:1035D0004AB10AE00268816A5268C2F308020A80AE
:1035E000816A891C08E0026972B10268526802F0BF
:1035F0007F020A70816A491C8162C18D491E0904DB
:10360000090CC18503D019E002685268F1E701682E
:10361000CA6822F02002CA600168CA6822F4807277
:10362000CA6001684A6922F001024A61202180F8DB
:103630003E10016B012903D0FFF75AFE002008BDA0
:103640000021016301680C3151E8002F22F01002C3
:1036500041E80023002BF5D101680A68D20602D5A3
:103660000A6849680091818DFFF766FCE6E7000073
:1036700070B5044600680169E26821F440511143C5
:1036800001612169A068E269084361691143084347
:103690002168CA6849F20C639A430243CA602068F1
:1036A0004169A26921F440711143416131492068A7
:1036B000884202D03049884202D1FFF733FA01E054
:1036C000FFF720FAE2690023192164253226B2F5BA
:1036D000004F626828D0A0FB0101930F9200FCF715
:1036E000D7FD0146B0FBF5F06FF01802504301EB37
:1036F000800006EB0010B0FBF5F000F0F002B1FB2B
:10370000F5F002EB0012B1FBF5F06FF0180358432F
:1037100001EB800006EB0010B0FBF5F000F00F00AD
:1037200021681044886070BDA0FB010192185B41C4
:10373000FCF7AEFD0146B0FBF5F00201B1FBF5F080
:103740006FF01803584301EB800006EBC000B0FB9C
:10375000F5F000F0F80002EB4002B1FBF5F0584341
:1037600001EB800006EBC000B0FBF5F000F00700B5
:10377000D6E7000000100140001401402DE9F0419F
:10378000984617460E460446069D27E0681C25D03D
:103790002DB1FFF77DF8A0EB0800A8421ED92068E4
:1037A0000C3050E8001F21F4D07140E80012002ACC
:1037B000F5D12068143050E8001F21F0010140E8E5
:1037C0000012002AF5D1202084F83D0084F83E0044
:1037D000002084F83C000320BDE8F08120680068E8
:1037E00036EA000004D00020B842CFD00020F3E732
:1037F0000120F9E70148FFF7A1BB00008C00002081
:10380000FEE703B401984100009850EAC12018BFB8
:1038100004204A0D18BF40F0010040F2FF72B2EBE5
:10382000515F08BF40F00200012808BF052002B028
:1038300070470907090E002804DB00F1E02080F83A
:103840000014704700F00F0000F1E02080F8141D14
:10385000704730380A2801D2012070470020704795
:1038600013B54FF47A73012269460248FFF742FD0F
:1038700000981CBD8C000020FFF718F8FFF716FE1B
:10388000FFF7D4FDFFF7B4FDFFF790FDFFF7ECFD68
:1038900000F002F8FEE7000000B58BB00020012127
:1038A000CDE90601089105900490009001900290E6
:1038B000039069460948FEF71BFA00B1FEE7074886
:1038C000FEF726FD00B1FEE702210448FEF7FDF9F0
:1038D000002800D0FEE70BB000BD0000640000200F
:1038E00010B500290AD00878002807D00548784488
:1038F000FDF742FB002801D0002010BD02487844AB
:1039000010BD00000E020000060200000808A0F52D
:1039100000114FEA3101704743004FEAD30C4FEAE0
:103920003C0C43401FBF40070CF1605113F0FE4FA9
:1039300070471CF0006F03D100200CF0004170476D
:103940000CF0004343EA507010B540EACC0000F0A0
:103950000EF800BF000000924FEA0001FFF7D6BF4B
:103960004FF000414FF00000A1F5002170470EF12B
:10397000020E2EF0030E5EF8044B244204D44FEAEC
:103980004102B2F17F4F11D84FEA4003B3F17F4FAC
:103990000CD80ED14FEAD07CB2F17F4F0CEB4C0C1F
:1039A0000CF1020C08BF4CEBD17C04E04FF0080C8A
:1039B00001E04FEAD17C0CEB4C0324FA03F404F051
:1039C0000704B4F1040C06D20EEB840CBDE81040E1
:1039D0004CF0010C6047DFE80CF0070802024FF0E2
:1039E0000040A0F5800010BD0846420018BFD2F18B
:1039F000807288BF00F0004010BD4FF04070E1EED3
:103A0000100A7047FCF767BE000610160006101675
:103A1000000000000000000001020304060708097E
:103A20000000000001020304040000080000000080
:103A30000000000200010000100000000240000031
:103A4000000000A00000000005400000000000C8C9
:103A5000000000000C4000000000409C000000003E
:103A6000194000000020BCBE0000000034400000EF
:103A7000BFC91B8E00000004B5400000504BCFD0E2
:103A80006607E2CF010000006C4100003E8251AAAF
:103A9000DFEEA73401000000D9420000DCB5A0E24F
:103AA0003A301F97FFFFFFFFB4450000FD25A0C877
:103AB000E9A3C14FFFFFFFFFFF3F000000000080B0
:103AC00000000000FF3F0000000000800000000038
:103AD0003A7474003A7474003A747400183B000825
:103AE0000000002030000000C4010008483B00082E
:103AF00030000020C0080000E00100081C000000A9
:103B000043000000F8FFFFFF0C0000000E00000063
:103B10000F0000002E00000000000000FFFFFF006B
:103B2000FFFFFFFF00000000000000000100000098
:103B300010000000000000000024F400000000005D
:083B400000000000000000007D
:040000050800018965
:00000001FF
